:100000000C945F000C9487000C9487000C9487007C
:100010000C9487000C9487000C9487000C94870044
:100020000C9487000C9487000C9487000C94B20306
:100030000C9487000C9487000C9487000C94870024
:100040000C94D00A0C9487000C949D080C94CF0853
:100050000C9487000C9487000C9487000C94870004
:100060000C9487000C948700000000080002010037
:100070000003040700000000000000000102040863
:100080001020408001020408102001020408102002
:10009000040404040404040402020202020203032E
:1000A0000303030300000000250028002B000000CC
:1000B0000000240027002A00AA03FF08AE03112431
:1000C0001FBECFEFD8E0DEBFCDBF11E0A0E0B1E0B2
:1000D000E0E1FCE102C005900D92A23AB107D9F728
:1000E00022E0A2EAB1E001C01D92A93DB207E1F70A
:1000F00010E0CCEBD0E004C02297FE010E94C10CBE
:10010000C83BD107C9F70E94BF0A0C94FB0D0C94A1
:10011000000022E131E0FC0131832083089522E1D7
:1001200031E0FC01318320830C94CE0ACF93DF931E
:10013000EC0182E191E099838883CE0104960E94CC
:10014000F5041A8284EB8B83DF91CF91089522E12D
:1001500031E0FC01318320836283438304960C9455
:10016000F50404960C948E05462FFC01628170E024
:1001700004960C942D06362F242FFC01628170E02A
:10018000432F04960C942607462FFC01638170E0F0
:1001900004960C942D06362F242FFC01638170E009
:1001A000432F04960C942607CF93DF93FB01DC01C9
:1001B00013966C91139770E06E177F0744F01296B8
:1001C000AC91B0E0BF01EA17FB070CF4BD01049647
:1001D000DF91CF910C9426070F931F93CF93DF935A
:1001E0002DE731E0FC01219331938F01309771F0BD
:1001F000EC01EE96C017D10749F02A97E881F98102
:100200000190F081E02DCE010995F4CFDF91CF91DF
:100210001F910F910895CF93DF93EC010E94EC00A2
:10022000CE01DF91CF910C94CE0A8F929F92AF9224
:10023000BF92CF92DF92EF92FF920F931F93CF93D3
:10024000DF93EC015A01490102960E94B100B50109
:10025000CE010C960E94B100B401CE0146960E94D8
:10026000B100B801CE0180960E94B100B701CE0165
:100270008A960E94B100B601CE01C496DF91CF915B
:100280001F910F91FF90EF90DF90CF90BF90AF90B4
:100290009F908F900C94B10086E191E00895FF92B9
:1002A0000F931F93CF93DF93F62EC0E0D0E08C0125
:1002B0000E5F1F4F6F2DC8018C0F9D1F0E94C40041
:1002C0002A96C233D105B1F7DF91CF911F910F91DB
:1002D000FF900895FF920F931F93CF93DF93F62E15
:1002E000C0E0D0E08C010E5F1F4F6F2DC8018C0F56
:1002F0009D1F0E94B4002A96C233D105B1F7DF9149
:10030000CF911F910F91FF9008958F929F92AF927E
:10031000BF92CF92DF92EF92FF920F931F93CF93F2
:10032000DF93EC016EAD0E944F0168EC70E080E05D
:1003300090E00E94490B4E018CE0880E911C8E01CA
:10034000005C1F4FF80140816FADC4010E94BB00EB
:1003500068EC70E080E090E00E94490B5E01F6E1FD
:10036000AF0EB11CF80140816FADC5010E94BB000A
:1003700068EC70E080E090E00E94490B6E01F0E2D2
:10038000CF0ED11CF80140816FADC6010E94BB00A9
:1003900068EC70E080E090E00E94490B7E01FAE298
:1003A000EF0EF11CF80140816FADC7010E94BB0048
:1003B00068EC70E080E090E00E94490BF801408119
:1003C0006FADCE0102960E94BB0068EC70E080E049
:1003D00090E00E94490B6EADC4010E94C4006EAD56
:1003E000C5010E94C4006EADC6010E94C4006EAD7E
:1003F000C7010E94C40068EC70E080E090E00E94B9
:10040000490BF80140816FADC4010E94BB0068EC4C
:1004100070E080E090E00E94490BF80140816FADF0
:10042000C5010E94BB0068EC70E080E090E00E9493
:10043000490BF80140816FADC6010E94BB0068EC1A
:1004400070E080E090E00E94490BF80140816FADC0
:10045000C701DF91CF911F910F91FF90EF90DF9037
:10046000CF90BF90AF909F908F900C94BB00CF9394
:10047000DF93EC016FAD02960E94C4006FADCE0118
:100480000C960E94B4006FADCE0146960E94B40057
:100490006FADCE0180960E94C4006FADCE018A96EA
:1004A000DF91CF910C94C400CF93DF93EC016FAD3B
:1004B00002960E94C4006FADCE010C960E94B4005B
:1004C0006FADCE0146960E94C4006FADCE018096FE
:1004D0000E94C4006FADCE018A96DF91CF910C943B
:1004E000B400CF92DF92EF92FF920F931F93CF93BE
:1004F000DF93EC016FAD02960E94B4006FADCE01A8
:100500000C960E94C4006FADCE0146960E94C400B6
:100510006FADCE0180960E94C4006FADCE018A9669
:100520000E94B40084E0E82EF12C8E010C5C1F4F79
:100530006E0180E4C80ED11CF60140816FADC80188
:100540000E94BB006CE271E080E090E00E94490BE9
:10055000F60140816FADC8010E94CB006CE271E0F2
:1005600080E090E00E94490BF1E0EF1AF10821F7DA
:1005700020E04FAD6AE570E0C801DF91CF911F9197
:100580000F91FF90EF90DF90CF900C94D4006330E8
:100590007105A1F03CF46130710561F062307105C4
:1005A00059F008956530710579F054F066307105A1
:1005B00079F008950C9485010C9437020C94540240
:1005C000FC0167AD0C946A01FC0167AD0C944F010E
:1005D0000C9471029F92AF92BF92CF92DF92EF92F2
:1005E000FF920F931F93CF93DF93CDB7DEB72A9778
:1005F0000FB6F894DEBF0FBECDBF8C018DE791E042
:10060000F801819391937F016801FEE3CF0ED11C25
:10061000C7010E9496008AE0E80EF11CEC14FD046C
:10062000B9F78FEFF80186AF87E387AF81E0E05C31
:10063000FF4F808391E6A92E91E0B92E2DE6C22EC0
:1006400021E0D22EE12CF12C36E0932EF5014081F1
:10065000F2E0AF0EB11CF6016081F2E0CF0ED11CCA
:10066000CE0101960E94A700D801AE0DBF1D8B815F
:1006700014968C9314978C8115968C931597FE0184
:1006800035961696892D01900D928A95E1F7CE0147
:1006900001960E9489008AE0E80EF11CECE3EE1658
:1006A000F104A1F62A960FB6F894DEBF0FBECDBFB7
:1006B000DF91CF911F910F91FF90EF90DF90CF903E
:1006C000BF90AF909F900895CF92DF92EF92FF92EC
:1006D0000F931F9326E040E855E260E070E08FE260
:1006E00092E00E94410886E0C82ED12C93E0E92ECA
:1006F000F12C05E010E029E030E04AE050E06BE04A
:1007000070E084EA91E00E9415011F910F91FF9023
:10071000EF90DF90CF90089584EA91E00E944C0121
:10072000BC018FE292E00E9484098FE292E00E9475
:100730005E07892BD1F341E060E070E08FE292E048
:100740000E94070A7093A3016093A20184EA91E0DA
:100750000C94C70284EA91E00C94EA0284EA91E0E6
:100760000C94EC001F920F920FB60F9211242F934E
:100770003F934F935F936F937F938F939F93AF9329
:10078000BF93CF93DF93EF93FF938091E60187FFB1
:1007900005C0109285001092840016C02091E601D9
:1007A000332727FD30958091E50190E02817390720
:1007B0005CF43091E60126E03203D0011124A95106
:1007C000BE4F8C9186FD15C08091E6018F5F8093AE
:1007D000E6012091E601332727FD30958091E50160
:1007E00090E02817390794F48091E6018C302CF1C1
:1007F0000DC03091E6013203F0011124E951FE4FA2
:10080000808160E08F730E94200CDECF8091840095
:100810009091850084329E4418F480E29EE405C0E5
:100820008091840090918500049690938900809334
:1008300088008FEF8093E601C5C03091E60126E085
:100840003203F0011124E951FE4F8581882309F418
:100850008DC04091E6013091E6014203D0011124A0
:10086000A951BE4F3203F0011124E951FE4F1396F6
:100870004D915C911497818192813091E6018417AA
:10088000950768F54091E6014203F0011124E95112
:10089000FE4F3203D0011124A951BE4F15963C9151
:1008A00081819281830F911D928381834091E60122
:1008B0003091E6014203E0011124C951DE4F3203B9
:1008C000D0011124A951BE4F4B815C8111968D91AD
:1008D0009C9112978417950708F448C02BC040914B
:1008E000E6014203F0011124E951FE4F3203D00129
:1008F0001124A951BE4F15963C9181819281831B91
:100900009109928381834091E6013091E60142038F
:10091000E0011124C951DE4F3203D0011124A95145
:10092000BE4F4B815C8111968D919C911297481717
:100930005907E0F03091E6014091E6014203E00101
:100940001124C951DE4F8B819C813203D0011124C7
:10095000A951BE4F12969C938E9311973091E60148
:100960003203F0011124E951FE4F15828091840079
:10097000909185002091E60146E02403D0011124E6
:10098000A951BE4F11962D913C911297820F931F42
:1009900090938900809388002091E6012403D00180
:1009A0001124A951BE4F8C9186FF0CC02091E60105
:1009B0002403F0011124E951FE4F808161E08F731F
:1009C0000E94200CFF91EF91DF91CF91BF91AF91E9
:1009D0009F918F917F916F915F914F913F912F9157
:1009E0000F900FBE0F901F901895FC01A091E5018C
:1009F000AC30B8F481E08A0F8093E501A08386E0F3
:100A0000A89FD0011124A951BE4F8CED95E01296FC
:100A10009C938E93119715828AE091E0948383834F
:100A200008958FEF80830895DF92EF92FF920F93E6
:100A30001F93CF93DF93EC01D62E7A018901888131
:100A40008C3008F062C061E08D2D0E94E70B888138
:100A500096E0899FF0011124E951FE4F2D2D2F734F
:100A60009081907C922B908360E272E06E197F09F6
:100A700077FF02C06D5F7F4F759567957595679598
:100A8000698340E659E0401B510B57FF02C04D5FA0
:100A90005F4F55954795559547954A836CE00E9461
:100AA000670C9CE0899FA001112420E030E096E0D3
:100AB000B901640F751F969FF001979FF00D1124E7
:100AC000E951FE4F608166FD16C02F5F3F4F2C300D
:100AD000310571F781110FC01092800082E0809380
:100AE00081001092850010928400B19A80916F006D
:100AF000826080936F00E88186E0E89FF001112416
:100B0000E951FE4F8081806480838881DF91CF919D
:100B10001F910F91FF90EF90DF90089520E639E04C
:100B200040E252E00C941405DC01EC91EC3070F5DD
:100B300011968C91119728E830E0281B310987FD28
:100B40003395220F331F220F331F6217730784F070
:100B500012968C9128E532E0281B310987FD3395E8
:100B6000220F331F220F331F621773070CF49B01F0
:100B70008FB7F89496E0E99FF0011124E951FE4FF8
:100B800022503109328321838FBF158208954F92FD
:100B90005F926F927F92AF92BF92CF92DF92EF926D
:100BA000FF920F931F93CF93DF93EC01603282E0AB
:100BB00078070CF041C0653B710514F064EB70E000
:100BC000898128E830E0281B310987FD3395220F01
:100BD000331F220F331F5901CC24B7FCC094DC2CE7
:100BE0002B0177FF02C0412C512CB201882777FDE1
:100BF0008095982F2A8148E552E0421B510927FD34
:100C00005395440F551F440F551F2A01662457FC66
:100C10006094762C7F926F925F924F9214EBE12E4C
:100C2000F12C00E010E020E030E0A9010E94770AFA
:100C30000F900F900F900F90CE01DF91CF911F91E9
:100C40000F91FF90EF90DF90CF90BF90AF907F908B
:100C50006F905F904F900C9494059F92AF92BF92CB
:100C6000CF92DF92EF92FF920F931F93CF93DF9378
:100C7000EC01942E442309F472C0603232E0730711
:100C80000CF03EC0653B710514F064EB70E08981A7
:100C900028E830E0281B310987FD3395220F331FE8
:100CA000220F331F5901CC24B7FCC094DC2C77FFF2
:100CB00002C060E070E0882777FD8095982F2A8138
:100CC00008E512E0021B110927FD1395000F111F03
:100CD000000F111F222717FD2095322F3F932F93CE
:100CE0001F930F9314EBE12EF12C00E010E020E0B5
:100CF00030E0A9010E94770A0F900F900F900F909B
:100D0000E881EC30C8F5298188E890E0821B9109E0
:100D100027FD9395880F991F880F991F68177907EA
:100D200084F08A8128E532E0281B310987FD33955C
:100D3000220F331F220F331FCB01261737070CF466
:100D4000C9012FB7F89436E0E39FF0011124E9516F
:100D5000FE4F02979483838395822FBF0DC0DF914E
:100D6000CF911F910F91FF90EF90DF90CF90BF90A8
:100D7000AF909F900C94C705DF91CF911F910F9179
:100D8000FF90EF90DF90CF90BF90AF909F9008952D
:100D9000DC01EC91EF3F59F0B6E0EB9FF00111243C
:100DA000E951FE4F818192819F710296089580E002
:100DB00090E00895AF92BF92CF92DF92EF92FF92B0
:100DC0000F931F93CF93DF93EC010E94C8062A81F3
:100DD00048E552E0421B510927FD5395440F551F2A
:100DE000440F551F7A010027F7FC0095102F498109
:100DF00028E830E0241B310947FD3395220F331FCB
:100E0000220F331F442737FD4095542F0196BC0114
:100E1000882777FD8095982F1F921F921F92E4EBF1
:100E2000EF93A12CB12C65010E94770A0F900F90CF
:100E30000F900F90CB01DF91CF911F910F91FF90F9
:100E4000EF90DF90CF90BF90AF900895EF92FF9218
:100E50000F931F93CF93DF931F92CDB7DEB78C0113
:100E60007B0129830E942D0629812223F9F080E24B
:100E7000E81682E0F8066CF4C8010E94DA068E15C6
:100E80009F05A1F065E070E080E090E00E94490BD2
:100E9000F3CFC8010E94C8068E159F0539F065E0A2
:100EA00070E080E090E00E94490BF3CF0F90DF915B
:100EB000CF911F910F91FF90EF900895FC01818DCC
:100EC000228D90E0805C9F4F821B91098F73992740
:100ED0000895FC01918D828D981731F0828DE80F75
:100EE000F11D858D90E008958FEF9FEF0895FC012F
:100EF000918D828D981761F0828DDF01A80FB11D51
:100F00005D968C91928D9F5F9F73928F90E0089574
:100F10008FEF9FEF089585EF98E0892B49F080E0EF
:100F200090E0892B29F00E94F50881110C940000B3
:100F30000895FC01848DDF01A80FB11DA35ABF4F96
:100F40002C91848D90E001968F739927848FA689C8
:100F5000B7892C93A089B1898C9180648C93938DEF
:100F6000848D981306C00288F389E02D80818F7DDF
:100F700080830895CF93DF93EC01888D8823C9F097
:100F8000EA89FB89808185FD05C0A889B9898C9192
:100F900086FD0FC00FB607FCF5CF808185FFF2CF2D
:100FA000A889B9898C9185FFEDCFCE010E94990760
:100FB000E7CFDF91CF910895CF92DF92FF920F9309
:100FC0001F93CF93DF931F92CDB7DEB76C0181E003
:100FD000D60158968C9358975B969C915B975C963C
:100FE0008C915C97981307C05096ED91FC915197A6
:100FF000808185FD2EC0F601038D10E00F5F1F4F2D
:101000000F731127F02EF601848DF81211C00FB660
:1010100007FCF9CFD6015096ED91FC915197808154
:1010200085FFF1CFC60169830E9499076981EBCFE3
:10103000838DE80FF11DE35AFF4F6083D6015B9665
:101040000C935B975296ED91FC915397808180624F
:101050000CC0D6015696ED91FC915797608350963F
:10106000ED91FC91519780818064808381E090E0D4
:101070000F90DF91CF911F910F91FF90DF90CF9054
:101080000895BF92CF92DF92EF92FF92CF93DF93BA
:10109000EC016A017B01B22E60E874E88EE190E019
:1010A000A70196010E94730C215031094109510991
:1010B0005695479537952795E889F98982E0808389
:1010C000211580E1380798F0E889F989108260E4F9
:1010D00072E48FE090E0A70196010E94730C21500A
:1010E0003109410951095695479537952795EC8562
:1010F000FD853083EE85FF852083188EEC89FD8980
:10110000B082EA89FB89808180618083EA89FB89DA
:10111000808188608083EA89FB8980818068808300
:10112000EA89FB8980818F7D8083DF91CF91FF9059
:10113000EF90DF90CF90BF9008951F920F920FB65F
:101140000F9211242F938F939F93EF93FF93E0912E
:101150003F02F09140028081E0914502F091460209
:1011600082FD12C09081809148028F5F8F73209121
:101170004902821751F0E0914802F0E0E15DFD4F35
:10118000958F8093480201C08081FF91EF919F91DC
:101190008F912F910F900FBE0F901F9018951F9257
:1011A0000F920FB60F9211242F933F934F935F939B
:1011B0006F937F938F939F93AF93BF93EF93FF931F
:1011C0008FE292E00E949907FF91EF91BF91AF915A
:1011D0009F918F917F916F915F914F913F912F914F
:1011E0000F900FBE0F901F9018958FE292E00E9413
:1011F0005E0721E0892B09F420E0822F08951092E8
:1012000032021092310288EE93E0A0E0B0E08093C9
:10121000330290933402A0933502B093360285E8EE
:1012200091E09093300280932F0285EC90E09093B0
:101230003C0280933B0284EC90E090933E028093CA
:101240003D0280EC90E09093400280933F0281EC5D
:1012500090E0909342028093410282EC90E0909360
:1012600044028093430286EC90E090934602809380
:101270004502109248021092490210924A021092BE
:101280004B020895CF92DF92EF92FF920F931F933C
:10129000CF93DF937C016A01EB0100E010E00C15B5
:1012A0001D0571F06991D701ED91FC910190F081DC
:1012B000E02DC7010995892B19F00F5F1F4FEFCF64
:1012C000C801DF91CF911F910F91FF90EF90DF90B8
:1012D000CF9008956115710581F0DB010D9000201C
:1012E000E9F7AD0141505109461B570BDC01ED9167
:1012F000FC910280F381E02D099480E090E0089554
:1013000061E971E00C946A090F931F93CF93DF9307
:10131000EC010E946A098C01CE010E948009800FB5
:10132000911FDF91CF911F910F9108950F931F93FC
:10133000CF93DF93EC010E941A0B688779878A8725
:101340009B87E881F9810084F185E02DCE01099524
:1013500097FF15C00E941A0B088519852A853B85C1
:10136000601B710B820B930B0C811D812E813F81C1
:10137000601771078207930720F38FEF9FEFDF91CC
:10138000CF911F910F910895FF920F931F93CF93C9
:10139000DF93EC018B01F42ECE010E9496099C0193
:1013A00097FD28C08D32910519F1C0970A9710F169
:1013B000FF2019F02E323105F9F001301105F9F056
:1013C0000230110569F42D30310551F034F4295003
:1013D00031092230310520F012C02032310579F474
:1013E000E881F9810680F781E02DCE010995D4CFFF
:1013F0008DE203C0C90105C08EE290E002C08FEF0C
:101400009FEFDF91CF911F910F91FF900895CF92A1
:10141000DF92FF920F931F93CF93DF9300D000D002
:10142000CDB7DEB76C01042F40E00E94C409FC0177
:1014300097FD4BC020E030E0A901F12C112707FDFA
:101440001095E017F107E9F0ED32F105C1F0CF0199
:10145000C0970A97B0F4AAE0B0E00E94B40C9B01D8
:10146000AC01CF01AA2797FDA095BA2F280F391FED
:101470004A1F5B1F205331094109510902C0FF2453
:10148000F394D601ED91FC910680F781E02DC60121
:1014900029833A834B835C830995C6010E94960990
:1014A000FC01C09729813A814B815C810A9748F2FF
:1014B000E017F10731F2FF2061F066277727CB01B3
:1014C000621B730B840B950B06C060E070E0CB01D0
:1014D00002C0CA01B9010F900F900F900F90DF91D9
:1014E000CF911F910F91FF90DF90CF9008954F9271
:1014F0005F926F927F92AF92BF92CF92DF92EF9204
:10150000FF920F931F93CF93DF93CDB7DEB72901DF
:101510003A01621B730B840B950B29893A894B891D
:101520005C892A193B094C095D09298B3A8B4B8B45
:101530005C8B9B01AC0169897A898B899C890E94AB
:10154000570CE418F50806091709A80197010E942D
:10155000950C2A0D3B1D4C1D5D1DCA01B901DF9183
:10156000CF911F910F91FF90EF90DF90CF90BF90A0
:10157000AF907F906F905F904F90089508950E9474
:10158000830B0E94BE0A0E946403CBE8D7E00E944E
:101590008C032097E1F30E948B07F9CF0C946C0D1C
:1015A0001F920F920FB60F9211242F933F938F9398
:1015B0009F93AF93BF938091CD029091CE02A09163
:1015C000CF02B091D0023091CC0226E0230F2D370C
:1015D00020F40296A11DB11D05C029E8230F039632
:1015E000A11DB11D2093CC028093CD029093CE0219
:1015F000A093CF02B093D0028091D1029091D202F9
:10160000A091D302B091D4020196A11DB11D809387
:10161000D1029093D202A093D302B093D402BF918F
:10162000AF919F918F913F912F910F900FBE0F908F
:101630001F9018952FB7F8946091CD027091CE024B
:101640008091CF029091D0022FBF08953FB7F894B8
:101650008091D1029091D202A091D302B091D40294
:1016600026B5A89B05C02F3F19F00196A11DB11DFD
:101670003FBF6627782F892F9A2F620F711D811D1A
:10168000911D43E0660F771F881F991F4A95D1F778
:1016900008958F929F92AF92BF92CF92DF92EF9276
:1016A000FF926B017C010E94260B4B015C01C1146F
:1016B000D104E104F104F1F00E94560C0E94260BC3
:1016C000681979098A099B09683E7340810591056B
:1016D00070F321E0C21AD108E108F10888EE880E03
:1016E00083E0981EA11CB11CC114D104E104F104D3
:1016F00029F7DDCFFF90EF90DF90CF90BF90AF90B4
:101700009F908F900895789484B5826084BD84B54D
:10171000816084BD85B5826085BD85B5816085BDEC
:10172000EEE6F0E0808181608083E1E8F0E0108205
:10173000808182608083808181608083E0E8F0E046
:10174000808181608083E1EBF0E080818460808330
:10175000E0EBF0E0808181608083EAE7F0E0808167
:101760008460808380818260808380818E7F80839B
:101770008081806880831092C1000895833081F059
:1017800028F4813099F08230A1F008958730A9F0D3
:101790008830B9F08430D1F4809180008F7D03C00F
:1017A000809180008F7780938000089584B58F7733
:1017B00002C084B58F7D84BD08958091B0008F777D
:1017C00003C08091B0008F7D8093B0000895CF93C7
:1017D000DF9390E0FC01E458FF4F2491FC01E057B7
:1017E000FF4F8491882349F190E0880F991FFC01F5
:1017F000E255FF4FA591B4918C559F4FFC01C591C7
:10180000D4919FB7611108C0F8948C9120958223E0
:101810008C93888182230AC0623051F4F8948C91B1
:10182000322F309583238C938881822B888304C048
:10183000F8948C91822B8C939FBFDF91CF91089568
:101840000F931F93CF93DF931F92CDB7DEB7282F4F
:1018500030E0F901E859FF4F8491F901E458FF4F56
:101860001491F901E057FF4F04910023C9F0882338
:1018700021F069830E94BE0B6981E02FF0E0EE0F3A
:10188000FF1FEC55FF4FA591B4919FB7F8948C9131
:10189000611103C01095812301C0812B8C939FBFE0
:1018A0000F90DF91CF911F910F9108950895DB0163
:1018B0008F939F930E94B40CBF91AF91A29F800D14
:1018C000911DA39F900DB29F900D11240895991B17
:1018D00079E004C0991F961708F0961B881F7A9527
:1018E000C9F780950895A1E21A2EAA1BBB1BFD0122
:1018F0000DC0AA1FBB1FEE1FFF1FA217B307E407EF
:10190000F50720F0A21BB30BE40BF50B661F771F46
:10191000881F991F1A9469F7609570958095909526
:101920009B01AC01BD01CF010895052E97FB1EF46C
:1019300000940E94AC0C57FD07D00E94730C07FC6A
:1019400003D04EF40C94AC0C5095409530952195F5
:101950003F4F4F4F5F4F08959095809570956195DB
:101960007F4F8F4F9F4F08950E94C50CA59F900DEC
:10197000B49F900DA49F800D911D11240895EE0F2A
:10198000FF1F0590F491E02D0994A29FB001B39F31
:10199000C001A39F700D811D1124911DB29F700D78
:1019A000811D1124911D0895CF93DF9382309105FD
:1019B00010F482E090E0E091D702F091D80220E0AC
:1019C00030E0A0E0B0E0309739F140815181481714
:1019D0005907B8F04817590771F48281938110971D
:1019E00029F013969C938E9312972CC09093D80253
:1019F0008093D70227C02115310531F042175307D4
:101A000018F0A901DB0101C0EF019A01BD01DF015E
:101A10000280F381E02DD7CF21153105F9F0281B85
:101A2000390B2430310580F48A819B816115710561
:101A300021F0FB019383828304C09093D8028093AA
:101A4000D702FE01329644C0FE01E20FF31F8193DC
:101A5000919322503109398328833AC02091D502CD
:101A60003091D602232B41F42091020130910301E1
:101A70003093D6022093D5022091000130910101CC
:101A80002115310541F42DB73EB740910401509125
:101A90000501241B350BE091D502F091D602E21727
:101AA000F307A0F42E1B3F0B2817390778F0AC0181
:101AB0004E5F5F4F2417350748F04E0F5F1F50935E
:101AC000D6024093D5028193919302C0E0E0F0E00A
:101AD000CF01DF91CF910895CF93DF93009709F461
:101AE00087C0FC01329713821282C091D702D09135
:101AF000D802209781F420813181280F391F8091ED
:101B0000D5029091D6028217930779F5F093D60209
:101B1000E093D5026DC0DE0120E030E0AE17BF07D4
:101B200050F412964D915C9113979D01411551050A
:101B300009F1DA01F3CFB383A28340815181840F8D
:101B4000951F8A179B0771F48D919C911197840FB3
:101B5000951F02969183808312968D919C91139785
:101B6000938382832115310529F4F093D802E09301
:101B7000D7023EC0D9011396FC93EE9312974D9174
:101B80005D91A40FB51FEA17FB0779F4808191815D
:101B9000840F951F0296D90111969C938E93828192
:101BA000938113969C938E931297E0E0F0E08A81E4
:101BB0009B81009719F0FE01EC01F9CFCE0102964E
:101BC00028813981820F931F2091D5023091D6024E
:101BD0002817390769F4309729F41092D802109227
:101BE000D70202C013821282D093D602C093D502CC
:101BF000DF91CF91089510E0CCEBD0E004C0FE015E
:101C00000E94C10C2296CE3BD107C9F7F894FFCFB2
:101C10000000D90280000100000000642D64000073
:101C2000000089008F0047657374757265733A20F0
:101C30000A092031202D20436F756E74200A092077
:101C400032202D205065616365200A092033202D44
:101C500020526F636B200A092034202D204F7065BD
:101C60006E200A092035202D20436C6F7365200AF1
:101C7000007500B400B4008C00870075001E002DB4
:101C8000002D002D0035001E0000000000EC000BB0
:101C90000100000000DC0742095E0777076907BA08
:101CA000070D0A006E616E00696E66006F76660051
:021CB0002E0004
:00000001FF
